{
  "contractName": "TokenVesting",
  "abi": [
    {
      "inputs": [
        {
          "internalType": "address",
          "name": "token_",
          "type": "address"
        }
      ],
      "stateMutability": "nonpayable",
      "type": "constructor"
    },
    {
      "anonymous": false,
      "inputs": [
        {
          "indexed": true,
          "internalType": "address",
          "name": "owner",
          "type": "address"
        },
        {
          "indexed": true,
          "internalType": "address",
          "name": "pendingOwner",
          "type": "address"
        }
      ],
      "name": "OwnershipTransferPending",
      "type": "event"
    },
    {
      "anonymous": false,
      "inputs": [
        {
          "indexed": true,
          "internalType": "address",
          "name": "previousOwner",
          "type": "address"
        },
        {
          "indexed": true,
          "internalType": "address",
          "name": "newOwner",
          "type": "address"
        }
      ],
      "name": "OwnershipTransferred",
      "type": "event"
    },
    {
      "anonymous": false,
      "inputs": [
        {
          "indexed": true,
          "internalType": "address",
          "name": "oldReceiver",
          "type": "address"
        },
        {
          "indexed": true,
          "internalType": "address",
          "name": "newReceiver",
          "type": "address"
        }
      ],
      "name": "ReceiverChanged",
      "type": "event"
    },
    {
      "anonymous": false,
      "inputs": [
        {
          "indexed": true,
          "internalType": "address",
          "name": "token",
          "type": "address"
        },
        {
          "indexed": false,
          "internalType": "uint256",
          "name": "amount",
          "type": "uint256"
        },
        {
          "indexed": true,
          "internalType": "address",
          "name": "destination",
          "type": "address"
        }
      ],
      "name": "RecoveredToken",
      "type": "event"
    },
    {
      "anonymous": false,
      "inputs": [
        {
          "indexed": true,
          "internalType": "address",
          "name": "receiver_",
          "type": "address"
        },
        {
          "indexed": false,
          "internalType": "uint256",
          "name": "tokensClaimed_",
          "type": "uint256"
        },
        {
          "indexed": true,
          "internalType": "address",
          "name": "destination_",
          "type": "address"
        }
      ],
      "name": "TokensClaimed",
      "type": "event"
    },
    {
      "anonymous": false,
      "inputs": [
        {
          "indexed": false,
          "internalType": "uint256",
          "name": "totalTokens_",
          "type": "uint256"
        }
      ],
      "name": "VestingFunded",
      "type": "event"
    },
    {
      "anonymous": false,
      "inputs": [
        {
          "indexed": true,
          "internalType": "address",
          "name": "receiver_",
          "type": "address"
        },
        {
          "indexed": false,
          "internalType": "uint256",
          "name": "tokensClaimed_",
          "type": "uint256"
        },
        {
          "indexed": true,
          "internalType": "address",
          "name": "destination_",
          "type": "address"
        }
      ],
      "name": "VestingKilled",
      "type": "event"
    },
    {
      "anonymous": false,
      "inputs": [
        {
          "indexed": true,
          "internalType": "address",
          "name": "receiver_",
          "type": "address"
        }
      ],
      "name": "VestingScheduleSet",
      "type": "event"
    },
    {
      "inputs": [],
      "name": "owner",
      "outputs": [
        {
          "internalType": "address",
          "name": "",
          "type": "address"
        }
      ],
      "stateMutability": "view",
      "type": "function",
      "constant": true
    },
    {
      "inputs": [],
      "name": "pendingOwner",
      "outputs": [
        {
          "internalType": "address",
          "name": "",
          "type": "address"
        }
      ],
      "stateMutability": "view",
      "type": "function",
      "constant": true
    },
    {
      "inputs": [],
      "name": "token",
      "outputs": [
        {
          "internalType": "address",
          "name": "",
          "type": "address"
        }
      ],
      "stateMutability": "view",
      "type": "function",
      "constant": true
    },
    {
      "inputs": [],
      "name": "totalVestingsTokens",
      "outputs": [
        {
          "internalType": "uint256",
          "name": "",
          "type": "uint256"
        }
      ],
      "stateMutability": "view",
      "type": "function",
      "constant": true
    },
    {
      "inputs": [
        {
          "internalType": "address",
          "name": "",
          "type": "address"
        }
      ],
      "name": "vestingScheduleOf",
      "outputs": [
        {
          "internalType": "uint256",
          "name": "startTime",
          "type": "uint256"
        },
        {
          "internalType": "uint256",
          "name": "cliff",
          "type": "uint256"
        },
        {
          "internalType": "uint256",
          "name": "totalPeriods",
          "type": "uint256"
        },
        {
          "internalType": "uint256",
          "name": "timePerPeriod",
          "type": "uint256"
        },
        {
          "internalType": "uint256",
          "name": "totalTokens",
          "type": "uint256"
        },
        {
          "internalType": "uint256",
          "name": "tokensClaimed",
          "type": "uint256"
        }
      ],
      "stateMutability": "view",
      "type": "function",
      "constant": true
    },
    {
      "inputs": [],
      "name": "renounceOwnership",
      "outputs": [],
      "stateMutability": "nonpayable",
      "type": "function"
    },
    {
      "inputs": [
        {
          "internalType": "address",
          "name": "newOwner_",
          "type": "address"
        }
      ],
      "name": "transferOwnership",
      "outputs": [],
      "stateMutability": "nonpayable",
      "type": "function"
    },
    {
      "inputs": [],
      "name": "acceptOwnership",
      "outputs": [],
      "stateMutability": "nonpayable",
      "type": "function"
    },
    {
      "inputs": [
        {
          "internalType": "address[]",
          "name": "receivers_",
          "type": "address[]"
        },
        {
          "components": [
            {
              "internalType": "uint256",
              "name": "startTime",
              "type": "uint256"
            },
            {
              "internalType": "uint256",
              "name": "cliff",
              "type": "uint256"
            },
            {
              "internalType": "uint256",
              "name": "totalPeriods",
              "type": "uint256"
            },
            {
              "internalType": "uint256",
              "name": "timePerPeriod",
              "type": "uint256"
            },
            {
              "internalType": "uint256",
              "name": "totalTokens",
              "type": "uint256"
            },
            {
              "internalType": "uint256",
              "name": "tokensClaimed",
              "type": "uint256"
            }
          ],
          "internalType": "struct ITokenVesting.VestingSchedule[]",
          "name": "vestingSchedules_",
          "type": "tuple[]"
        }
      ],
      "name": "setVestingSchedules",
      "outputs": [],
      "stateMutability": "nonpayable",
      "type": "function"
    },
    {
      "inputs": [
        {
          "internalType": "uint256",
          "name": "totalTokens_",
          "type": "uint256"
        }
      ],
      "name": "fundVesting",
      "outputs": [],
      "stateMutability": "nonpayable",
      "type": "function"
    },
    {
      "inputs": [
        {
          "internalType": "address",
          "name": "oldReceiver_",
          "type": "address"
        },
        {
          "internalType": "address",
          "name": "newReceiver_",
          "type": "address"
        }
      ],
      "name": "changeReceiver",
      "outputs": [],
      "stateMutability": "nonpayable",
      "type": "function"
    },
    {
      "inputs": [
        {
          "internalType": "address",
          "name": "receiver_",
          "type": "address"
        }
      ],
      "name": "claimableTokens",
      "outputs": [
        {
          "internalType": "uint256",
          "name": "claimableTokens_",
          "type": "uint256"
        }
      ],
      "stateMutability": "view",
      "type": "function",
      "constant": true
    },
    {
      "inputs": [
        {
          "internalType": "address",
          "name": "destination_",
          "type": "address"
        }
      ],
      "name": "claimTokens",
      "outputs": [],
      "stateMutability": "nonpayable",
      "type": "function"
    },
    {
      "inputs": [
        {
          "internalType": "address",
          "name": "receiver_",
          "type": "address"
        },
        {
          "internalType": "address",
          "name": "destination_",
          "type": "address"
        }
      ],
      "name": "killVesting",
      "outputs": [],
      "stateMutability": "nonpayable",
      "type": "function"
    },
    {
      "inputs": [
        {
          "internalType": "address",
          "name": "token_",
          "type": "address"
        },
        {
          "internalType": "address",
          "name": "destination_",
          "type": "address"
        }
      ],
      "name": "recoverToken",
      "outputs": [],
      "stateMutability": "nonpayable",
      "type": "function"
    }
  ],
  "bytecode": "0x60806040523480156200001157600080fd5b50604051620024b2380380620024b2833981810160405281019062000037919062000129565b336000806101000a81548173ffffffffffffffffffffffffffffffffffffffff021916908373ffffffffffffffffffffffffffffffffffffffff16021790555080600260006101000a81548173ffffffffffffffffffffffffffffffffffffffff021916908373ffffffffffffffffffffffffffffffffffffffff160217905550506200015b565b600080fd5b600073ffffffffffffffffffffffffffffffffffffffff82169050919050565b6000620000f182620000c4565b9050919050565b6200010381620000e4565b81146200010f57600080fd5b50565b6000815190506200012381620000f8565b92915050565b600060208284031215620001425762000141620000bf565b5b6000620001528482850162000112565b91505092915050565b612347806200016b6000396000f3fe608060405234801561001057600080fd5b50600436106100f55760003560e01c806384d2422611610097578063e30c397811610066578063e30c39781461023b578063f2fde38b14610259578063fc0c546a14610275578063feaea58614610293576100f5565b806384d24226146101b55780638da5cb5b146101e5578063a52b2e8214610203578063df8de3e71461021f576100f5565b8063715018a6116100d3578063715018a614610150578063739135451461015a5780637828f8a71461017657806379ba5097146101ab576100f5565b80634c69ec93146100fa578063537658581461011657806362ecef4214610132575b600080fd5b610114600480360381019061010f919061179e565b6102af565b005b610130600480360381019061012b919061179e565b610644565b005b61013a610812565b60405161014791906117f7565b60405180910390f35b610158610818565b005b610174600480360381019061016f919061183e565b610983565b005b610190600480360381019061018b919061186b565b610ac5565b6040516101a296959493929190611898565b60405180910390f35b6101b3610b01565b005b6101cf60048036038101906101ca919061186b565b610c8f565b6040516101dc91906117f7565b60405180910390f35b6101ed610d84565b6040516101fa9190611908565b60405180910390f35b61021d600480360381019061021891906119de565b610da8565b005b6102396004803603810190610234919061186b565b610f33565b005b6102436110bd565b6040516102509190611908565b60405180910390f35b610273600480360381019061026e919061186b565b6110e3565b005b61027d61120f565b60405161028a9190611908565b60405180910390f35b6102ad60048036038101906102a8919061179e565b611235565b005b3373ffffffffffffffffffffffffffffffffffffffff1660008054906101000a900473ffffffffffffffffffffffffffffffffffffffff1673ffffffffffffffffffffffffffffffffffffffff161461033d576040517f08c379a000000000000000000000000000000000000000000000000000000000815260040161033490611abc565b60405180910390fd5b600460008373ffffffffffffffffffffffffffffffffffffffff1673ffffffffffffffffffffffffffffffffffffffff168152602001908152602001600020600460008073ffffffffffffffffffffffffffffffffffffffff1673ffffffffffffffffffffffffffffffffffffffff168152602001908152602001600020600082015481600001556001820154816001015560028201548160020155600382015481600301556004820154816004015560058201548160050155905050600460008273ffffffffffffffffffffffffffffffffffffffff1673ffffffffffffffffffffffffffffffffffffffff168152602001908152602001600020600460008473ffffffffffffffffffffffffffffffffffffffff1673ffffffffffffffffffffffffffffffffffffffff168152602001908152602001600020600082015481600001556001820154816001015560028201548160020155600382015481600301556004820154816004015560058201548160050155905050600460008073ffffffffffffffffffffffffffffffffffffffff1673ffffffffffffffffffffffffffffffffffffffff168152602001908152602001600020600460008373ffffffffffffffffffffffffffffffffffffffff1673ffffffffffffffffffffffffffffffffffffffff168152602001908152602001600020600082015481600001556001820154816001015560028201548160020155600382015481600301556004820154816004015560058201548160050155905050600460008073ffffffffffffffffffffffffffffffffffffffff1673ffffffffffffffffffffffffffffffffffffffff1681526020019081526020016000206000808201600090556001820160009055600282016000905560038201600090556004820160009055600582016000905550508073ffffffffffffffffffffffffffffffffffffffff168273ffffffffffffffffffffffffffffffffffffffff167fd36aafedb017e43b79d3cf6aa1987d3fbb9fff33e1738c71dbf6b2abaadbded060405160405180910390a35050565b3373ffffffffffffffffffffffffffffffffffffffff1660008054906101000a900473ffffffffffffffffffffffffffffffffffffffff1673ffffffffffffffffffffffffffffffffffffffff16146106d2576040517f08c379a00000000000000000000000000000000000000000000000000000000081526004016106c990611abc565b60405180910390fd5b6000600460008473ffffffffffffffffffffffffffffffffffffffff1673ffffffffffffffffffffffffffffffffffffffff168152602001908152602001600020905060008160040154905060008260050154826107309190611b0b565b905081600460008773ffffffffffffffffffffffffffffffffffffffff1673ffffffffffffffffffffffffffffffffffffffff168152602001908152602001600020600501819055506107a6600260009054906101000a900473ffffffffffffffffffffffffffffffffffffffff168583611489565b8373ffffffffffffffffffffffffffffffffffffffff168573ffffffffffffffffffffffffffffffffffffffff167f1c74d9d52cde9d0f15138d3131a914ca474348a0e89fd7d8a1599039c1e18e408360405161080391906117f7565b60405180910390a35050505050565b60035481565b3373ffffffffffffffffffffffffffffffffffffffff1660008054906101000a900473ffffffffffffffffffffffffffffffffffffffff1673ffffffffffffffffffffffffffffffffffffffff16146108a6576040517f08c379a000000000000000000000000000000000000000000000000000000000815260040161089d90611abc565b60405180910390fd5b60008060006101000a81548173ffffffffffffffffffffffffffffffffffffffff021916908373ffffffffffffffffffffffffffffffffffffffff1602179055600160006101000a81548173ffffffffffffffffffffffffffffffffffffffff021916908373ffffffffffffffffffffffffffffffffffffffff160217905550600073ffffffffffffffffffffffffffffffffffffffff163373ffffffffffffffffffffffffffffffffffffffff167f8be0079c531659141344cd1fd0a4f28419497f9722a3daafe3b4186f6b6457e060405160405180910390a3565b3373ffffffffffffffffffffffffffffffffffffffff1660008054906101000a900473ffffffffffffffffffffffffffffffffffffffff1673ffffffffffffffffffffffffffffffffffffffff1614610a11576040517f08c379a0000000000000000000000000000000000000000000000000000000008152600401610a0890611abc565b60405180910390fd5b600060035414610a56576040517f08c379a0000000000000000000000000000000000000000000000000000000008152600401610a4d90611b8b565b60405180910390fd5b610a84600260009054906101000a900473ffffffffffffffffffffffffffffffffffffffff163330846115de565b806003819055507f3677c9434f5ab443cebe570bd0549adb7149a47c57a250985034f42dbea50e4681604051610aba91906117f7565b60405180910390a150565b60046020528060005260406000206000915090508060000154908060010154908060020154908060030154908060040154908060050154905086565b3373ffffffffffffffffffffffffffffffffffffffff16600160009054906101000a900473ffffffffffffffffffffffffffffffffffffffff1673ffffffffffffffffffffffffffffffffffffffff1614610b91576040517f08c379a0000000000000000000000000000000000000000000000000000000008152600401610b8890611bf7565b60405180910390fd5b3373ffffffffffffffffffffffffffffffffffffffff1660008054906101000a900473ffffffffffffffffffffffffffffffffffffffff1673ffffffffffffffffffffffffffffffffffffffff167f8be0079c531659141344cd1fd0a4f28419497f9722a3daafe3b4186f6b6457e060405160405180910390a3336000806101000a81548173ffffffffffffffffffffffffffffffffffffffff021916908373ffffffffffffffffffffffffffffffffffffffff1602179055506000600160006101000a81548173ffffffffffffffffffffffffffffffffffffffff021916908373ffffffffffffffffffffffffffffffffffffffff160217905550565b600080600460008473ffffffffffffffffffffffffffffffffffffffff1673ffffffffffffffffffffffffffffffffffffffff168152602001908152602001600020905060008160020154905060008103610cef57600092505050610d7f565b6000826000015442610d019190611b0b565b9050600083600101549050808211610d20576000945050505050610d7f565b600084600301548284610d339190611b0b565b610d3d9190611c46565b90508460050154848660040154868411610d575783610d59565b865b610d639190611c77565b610d6d9190611c46565b610d779190611b0b565b955050505050505b919050565b60008054906101000a900473ffffffffffffffffffffffffffffffffffffffff1681565b3373ffffffffffffffffffffffffffffffffffffffff1660008054906101000a900473ffffffffffffffffffffffffffffffffffffffff1673ffffffffffffffffffffffffffffffffffffffff1614610e36576040517f08c379a0000000000000000000000000000000000000000000000000000000008152600401610e2d90611abc565b60405180910390fd5b60005b82829050811015610f2c576000858583818110610e5957610e58611cb9565b5b9050602002016020810190610e6e919061186b565b9050838383818110610e8357610e82611cb9565b5b905060c00201600460008373ffffffffffffffffffffffffffffffffffffffff1673ffffffffffffffffffffffffffffffffffffffff1681526020019081526020016000208181610ed49190611e70565b9050508073ffffffffffffffffffffffffffffffffffffffff167fad6c90e26411f59c32b869505ebb4f0298425b4e9dd8aa92c7a9b13442f1fc9560405160405180910390a25080610f2590611e7e565b9050610e39565b5050505050565b600060035411610f78576040517f08c379a0000000000000000000000000000000000000000000000000000000008152600401610f6f90611f12565b60405180910390fd5b6000600460003373ffffffffffffffffffffffffffffffffffffffff1673ffffffffffffffffffffffffffffffffffffffff16815260200190815260200160002090506000610fc633610c8f565b90506000811161100b576040517f08c379a000000000000000000000000000000000000000000000000000000000815260040161100290611f7e565b60405180910390fd5b8082600501600082825461101f9190611f9e565b92505081905550611053600260009054906101000a900473ffffffffffffffffffffffffffffffffffffffff168483611489565b8273ffffffffffffffffffffffffffffffffffffffff163373ffffffffffffffffffffffffffffffffffffffff167fa96ccbd516e1bb3e6dad792a13a75e8afcf013d3ff446f07416945f5efd46062836040516110b091906117f7565b60405180910390a3505050565b600160009054906101000a900473ffffffffffffffffffffffffffffffffffffffff1681565b3373ffffffffffffffffffffffffffffffffffffffff1660008054906101000a900473ffffffffffffffffffffffffffffffffffffffff1673ffffffffffffffffffffffffffffffffffffffff1614611171576040517f08c379a000000000000000000000000000000000000000000000000000000000815260040161116890611abc565b60405180910390fd5b80600160006101000a81548173ffffffffffffffffffffffffffffffffffffffff021916908373ffffffffffffffffffffffffffffffffffffffff1602179055508073ffffffffffffffffffffffffffffffffffffffff163373ffffffffffffffffffffffffffffffffffffffff167f8573d4aae9f7fb051c6b88d7440011a1c12376acda6603a45f45bad36a8db4ce60405160405180910390a350565b600260009054906101000a900473ffffffffffffffffffffffffffffffffffffffff1681565b3373ffffffffffffffffffffffffffffffffffffffff1660008054906101000a900473ffffffffffffffffffffffffffffffffffffffff1673ffffffffffffffffffffffffffffffffffffffff16146112c3576040517f08c379a00000000000000000000000000000000000000000000000000000000081526004016112ba90611abc565b60405180910390fd5b600260009054906101000a900473ffffffffffffffffffffffffffffffffffffffff1673ffffffffffffffffffffffffffffffffffffffff168273ffffffffffffffffffffffffffffffffffffffff1603611353576040517f08c379a000000000000000000000000000000000000000000000000000000000815260040161134a9061201e565b60405180910390fd5b60008273ffffffffffffffffffffffffffffffffffffffff166370a08231306040518263ffffffff1660e01b815260040161138e9190611908565b602060405180830381865afa1580156113ab573d6000803e3d6000fd5b505050506040513d601f19601f820116820180604052508101906113cf9190612053565b905060008111611414576040517f08c379a000000000000000000000000000000000000000000000000000000000815260040161140b906120cc565b60405180910390fd5b61141f838383611489565b8173ffffffffffffffffffffffffffffffffffffffff168373ffffffffffffffffffffffffffffffffffffffff167f06fbbb545a0f80e8f0fe29d731148729a130754066a48802b5999c11acdf52ce8360405161147c91906117f7565b60405180910390a3505050565b6000808473ffffffffffffffffffffffffffffffffffffffff1663a9059cbb60e01b85856040516024016114be9291906120ec565b604051602081830303815290604052907bffffffffffffffffffffffffffffffffffffffffffffffffffffffff19166020820180517bffffffffffffffffffffffffffffffffffffffffffffffffffffffff83818316178352505050506040516115289190612186565b6000604051808303816000865af19150503d8060008114611565576040519150601f19603f3d011682016040523d82523d6000602084013e61156a565b606091505b5091509150818015611598575060008151148061159757508080602001905181019061159691906121d5565b5b5b6115d7576040517f08c379a00000000000000000000000000000000000000000000000000000000081526004016115ce9061224e565b60405180910390fd5b5050505050565b6000808573ffffffffffffffffffffffffffffffffffffffff166323b872dd60e01b8686866040516024016116159392919061226e565b604051602081830303815290604052907bffffffffffffffffffffffffffffffffffffffffffffffffffffffff19166020820180517bffffffffffffffffffffffffffffffffffffffffffffffffffffffff838183161783525050505060405161167f9190612186565b6000604051808303816000865af19150503d80600081146116bc576040519150601f19603f3d011682016040523d82523d6000602084013e6116c1565b606091505b50915091508180156116ef57506000815114806116ee5750808060200190518101906116ed91906121d5565b5b5b61172e576040517f08c379a0000000000000000000000000000000000000000000000000000000008152600401611725906122f1565b60405180910390fd5b505050505050565b600080fd5b600080fd5b600073ffffffffffffffffffffffffffffffffffffffff82169050919050565b600061176b82611740565b9050919050565b61177b81611760565b811461178657600080fd5b50565b60008135905061179881611772565b92915050565b600080604083850312156117b5576117b4611736565b5b60006117c385828601611789565b92505060206117d485828601611789565b9150509250929050565b6000819050919050565b6117f1816117de565b82525050565b600060208201905061180c60008301846117e8565b92915050565b61181b816117de565b811461182657600080fd5b50565b60008135905061183881611812565b92915050565b60006020828403121561185457611853611736565b5b600061186284828501611829565b91505092915050565b60006020828403121561188157611880611736565b5b600061188f84828501611789565b91505092915050565b600060c0820190506118ad60008301896117e8565b6118ba60208301886117e8565b6118c760408301876117e8565b6118d460608301866117e8565b6118e160808301856117e8565b6118ee60a08301846117e8565b979650505050505050565b61190281611760565b82525050565b600060208201905061191d60008301846118f9565b92915050565b600080fd5b600080fd5b600080fd5b60008083601f84011261194857611947611923565b5b8235905067ffffffffffffffff81111561196557611964611928565b5b6020830191508360208202830111156119815761198061192d565b5b9250929050565b60008083601f84011261199e5761199d611923565b5b8235905067ffffffffffffffff8111156119bb576119ba611928565b5b6020830191508360c08202830111156119d7576119d661192d565b5b9250929050565b600080600080604085870312156119f8576119f7611736565b5b600085013567ffffffffffffffff811115611a1657611a1561173b565b5b611a2287828801611932565b9450945050602085013567ffffffffffffffff811115611a4557611a4461173b565b5b611a5187828801611988565b925092505092959194509250565b600082825260208201905092915050565b7f54563a4e4f545f4f574e45520000000000000000000000000000000000000000600082015250565b6000611aa6600c83611a5f565b9150611ab182611a70565b602082019050919050565b60006020820190508181036000830152611ad581611a99565b9050919050565b7f4e487b7100000000000000000000000000000000000000000000000000000000600052601160045260246000fd5b6000611b16826117de565b9150611b21836117de565b9250828203905081811115611b3957611b38611adc565b5b92915050565b7f54563a414c52454144595f46554e444544000000000000000000000000000000600082015250565b6000611b75601183611a5f565b9150611b8082611b3f565b602082019050919050565b60006020820190508181036000830152611ba481611b68565b9050919050565b7f54563a4e4f545f50454e44494e475f4f574e4552000000000000000000000000600082015250565b6000611be1601483611a5f565b9150611bec82611bab565b602082019050919050565b60006020820190508181036000830152611c1081611bd4565b9050919050565b7f4e487b7100000000000000000000000000000000000000000000000000000000600052601260045260246000fd5b6000611c51826117de565b9150611c5c836117de565b925082611c6c57611c6b611c17565b5b828204905092915050565b6000611c82826117de565b9150611c8d836117de565b9250828202611c9b816117de565b91508282048414831517611cb257611cb1611adc565b5b5092915050565b7f4e487b7100000000000000000000000000000000000000000000000000000000600052603260045260246000fd5b60008135611cf581611812565b80915050919050565b60008160001b9050919050565b60007fffffffffffffffffffffffffffffffffffffffffffffffffffffffffffffffff611d3784611cfe565b9350801983169250808416831791505092915050565b6000819050919050565b6000611d72611d6d611d68846117de565b611d4d565b6117de565b9050919050565b6000819050919050565b611d8c82611d57565b611d9f611d9882611d79565b8354611d0b565b8255505050565b600081016000830180611db881611ce8565b9050611dc48184611d83565b505050600181016020830180611dd981611ce8565b9050611de58184611d83565b505050600281016040830180611dfa81611ce8565b9050611e068184611d83565b505050600381016060830180611e1b81611ce8565b9050611e278184611d83565b505050600481016080830180611e3c81611ce8565b9050611e488184611d83565b5050506005810160a0830180611e5d81611ce8565b9050611e698184611d83565b5050505050565b611e7a8282611da6565b5050565b6000611e89826117de565b91507fffffffffffffffffffffffffffffffffffffffffffffffffffffffffffffffff8203611ebb57611eba611adc565b5b600182019050919050565b7f54563a4e4f545f46554e44454400000000000000000000000000000000000000600082015250565b6000611efc600d83611a5f565b9150611f0782611ec6565b602082019050919050565b60006020820190508181036000830152611f2b81611eef565b9050919050565b7f54563a4e4f5f434c41494d41424c450000000000000000000000000000000000600082015250565b6000611f68600f83611a5f565b9150611f7382611f32565b602082019050919050565b60006020820190508181036000830152611f9781611f5b565b9050919050565b6000611fa9826117de565b9150611fb4836117de565b9250828201905080821115611fcc57611fcb611adc565b5b92915050565b7f54563a43414e4e4f545f5245434f5645525f56455354494e475f544f4b454e00600082015250565b6000612008601f83611a5f565b915061201382611fd2565b602082019050919050565b6000602082019050818103600083015261203781611ffb565b9050919050565b60008151905061204d81611812565b92915050565b60006020828403121561206957612068611736565b5b60006120778482850161203e565b91505092915050565b7f54563a4e4f5f544f4b454e000000000000000000000000000000000000000000600082015250565b60006120b6600b83611a5f565b91506120c182612080565b602082019050919050565b600060208201905081810360008301526120e5816120a9565b9050919050565b600060408201905061210160008301856118f9565b61210e60208301846117e8565b9392505050565b600081519050919050565b600081905092915050565b60005b8381101561214957808201518184015260208101905061212e565b60008484015250505050565b600061216082612115565b61216a8185612120565b935061217a81856020860161212b565b80840191505092915050565b60006121928284612155565b915081905092915050565b60008115159050919050565b6121b28161219d565b81146121bd57600080fd5b50565b6000815190506121cf816121a9565b92915050565b6000602082840312156121eb576121ea611736565b5b60006121f9848285016121c0565b91505092915050565b7f54563a534146455f5452414e534645525f4641494c4544000000000000000000600082015250565b6000612238601783611a5f565b915061224382612202565b602082019050919050565b600060208201905081810360008301526122678161222b565b9050919050565b600060608201905061228360008301866118f9565b61229060208301856118f9565b61229d60408301846117e8565b949350505050565b7f54563a534146455f5452414e534645525f46524f4d5f4641494c454400000000600082015250565b60006122db601c83611a5f565b91506122e6826122a5565b602082019050919050565b6000602082019050818103600083015261230a816122ce565b905091905056fea264697066735822122037d27e29bd3bebd448836577cf0c9c558225220ee509244b5145e8d0cde15e0664736f6c63430008110033",
  "immutableReferences": {},
  "source": "// SPDX-License-Identifier: UNLICENSED\npragma solidity ^0.8.12;\n\n// TODO: There is an issue where the sum of all vestingSchedule totalTokens is less than totalVestingsTokens.\n// NOTE: Excess of totalVestingsTokens, after paying out all totalTokens, requires awkward immediate vesting schedule to withdraw.\n\nimport { IERC20Like } from \"./Interfaces.sol\";\nimport { ITokenVesting } from \"./ITokenVesting.sol\";\n\ncontract TokenVesting is ITokenVesting {\n\n    address public override owner;\n    address public override pendingOwner;\n\n    address public override token;\n    uint256 public override totalVestingsTokens;\n\n    mapping(address => VestingSchedule) public override vestingScheduleOf;\n\n    /**\n     * @dev   Constructor.\n     * @param token_ The address of an erc20 token.\n     */\n    constructor(address token_) {\n        owner = msg.sender;\n        token = token_;\n    }\n\n    /**************************/\n    /*** Contract Ownership ***/\n    /**************************/\n\n    modifier onlyOwner() {\n        require(owner == msg.sender, \"TV:NOT_OWNER\");\n        _;\n    }\n\n    function renounceOwnership() external override onlyOwner {\n        pendingOwner = owner = address(0);\n\n        emit OwnershipTransferred(msg.sender, address(0));\n    }\n\n    function transferOwnership(address newOwner_) external override onlyOwner {\n        pendingOwner = newOwner_;\n\n        emit OwnershipTransferPending(msg.sender, newOwner_);\n    }\n\n    function acceptOwnership() external override {\n        require(pendingOwner == msg.sender, \"TV:NOT_PENDING_OWNER\");\n\n        emit OwnershipTransferred(owner, msg.sender);\n\n        owner = msg.sender;\n        pendingOwner = address(0);\n    }\n\n    /*********************/\n    /*** Token Vesting ***/\n    /*********************/\n\n    function setVestingSchedules(address[] calldata receivers_, VestingSchedule[] calldata vestingSchedules_) external override onlyOwner {\n        for (uint256 i; i < vestingSchedules_.length; ++i) {\n            address receiver = receivers_[i];\n\n            vestingScheduleOf[receiver] = vestingSchedules_[i];\n\n            emit VestingScheduleSet(receiver);\n        }\n    }\n\n    function fundVesting(uint256 totalTokens_) external override onlyOwner {\n        require(totalVestingsTokens == uint256(0), \"TV:ALREADY_FUNDED\");\n\n        _safeTransferFrom(token, msg.sender, address(this), totalTokens_);\n\n        totalVestingsTokens = totalTokens_;\n\n        emit VestingFunded(totalTokens_);\n    }\n\n    function changeReceiver(address oldReceiver_, address newReceiver_) external override onlyOwner {\n        // Swap old and new receivers' vesting schedule, using address(0) as a scratch space.\n        // This is done to not overwrite an active vesting schedule.\n        vestingScheduleOf[address(0)] = vestingScheduleOf[oldReceiver_];\n        vestingScheduleOf[oldReceiver_] = vestingScheduleOf[newReceiver_];\n        vestingScheduleOf[newReceiver_] = vestingScheduleOf[address(0)];\n\n        delete vestingScheduleOf[address(0)];\n\n        emit ReceiverChanged(oldReceiver_, newReceiver_);\n    }\n\n    function claimableTokens(address receiver_) public view override returns (uint256 claimableTokens_) {\n        VestingSchedule storage vestingSchedule = vestingScheduleOf[receiver_];\n\n        uint256 totalPeriods = vestingSchedule.totalPeriods;\n\n        if (totalPeriods == uint256(0)) return uint256(0);\n\n        uint256 timePassed = block.timestamp - vestingSchedule.startTime;\n        uint256 cliff = vestingSchedule.cliff;\n\n        if (timePassed <= cliff) return uint256(0);\n\n        uint256 multiplier = (timePassed - cliff) / vestingSchedule.timePerPeriod;\n\n        return\n            (\n                (\n                    (\n                        multiplier > totalPeriods ? totalPeriods : multiplier\n                    )\n                    * vestingSchedule.totalTokens\n                )\n                / totalPeriods\n            )\n            - vestingSchedule.tokensClaimed;\n    }\n\n    function claimTokens(address destination_) external override {\n        require(totalVestingsTokens > uint256(0), \"TV:NOT_FUNDED\");\n\n        VestingSchedule storage vestingSchedule = vestingScheduleOf[msg.sender];\n\n        uint256 tokensToClaim = claimableTokens(msg.sender);\n\n        require(tokensToClaim > uint256(0), \"TV:NO_CLAIMABLE\");\n\n        // NOTE: Setting tokensClaimed before transfer will result in no additional transfer on a reentrance.\n        vestingSchedule.tokensClaimed += tokensToClaim;\n\n        _safeTransfer(token, destination_, tokensToClaim);\n\n        emit TokensClaimed(msg.sender, tokensToClaim, destination_);\n    }\n\n    function killVesting(address receiver_, address destination_) external override onlyOwner {\n        VestingSchedule storage vestingSchedule = vestingScheduleOf[receiver_];\n\n        uint256 totalTokens = vestingSchedule.totalTokens;\n        uint256 tokensToClaim = totalTokens - vestingSchedule.tokensClaimed;\n\n        // NOTE: Setting tokensClaimed before transfer will result in no additional transfer on a reentrance.\n        vestingScheduleOf[receiver_].tokensClaimed = totalTokens;\n\n        _safeTransfer(token, destination_, tokensToClaim);\n\n        emit VestingKilled(receiver_, tokensToClaim, destination_);\n    }\n\n    /*********************/\n    /*** Miscellaneous ***/\n    /*********************/\n\n    function recoverToken(address token_, address destination_) external override onlyOwner {\n        require(token_ != token, \"TV:CANNOT_RECOVER_VESTING_TOKEN\");\n\n        uint256 amount = IERC20Like(token_).balanceOf(address(this));\n\n        require(amount > uint256(0), \"TV:NO_TOKEN\");\n\n        _safeTransfer(token_, destination_, amount);\n\n        emit RecoveredToken(token_, amount, destination_);\n    }\n\n    /******************/\n    /*** Safe ERC20 ***/\n    /******************/\n\n    function _safeTransfer(address token_, address to_, uint256 amount_) internal {\n        ( bool success, bytes memory data ) = token_.call(abi.encodeWithSelector(IERC20Like.transfer.selector, to_, amount_));\n\n        require(success && (data.length == uint256(0) || abi.decode(data, (bool))), 'TV:SAFE_TRANSFER_FAILED');\n    }\n\n    function _safeTransferFrom(address token_, address from_, address to_, uint256 amount_) internal {\n        ( bool success, bytes memory data ) = token_.call(abi.encodeWithSelector(IERC20Like.transferFrom.selector, from_, to_, amount_));\n\n        require(success && (data.length == uint256(0) || abi.decode(data, (bool))), 'TV:SAFE_TRANSFER_FROM_FAILED');\n    }\n\n}\n",
  "sourcePath": "/Users/francisco/Repos/web3-toy/contracts/TokenVesting.sol",
  "compiler": {
    "name": "solc",
    "version": "0.8.17+commit.8df45f5f.Emscripten.clang"
  },
  "schemaVersion": "3.4.11",
  "updatedAt": "2023-02-02T11:10:26.088Z",
  "networkType": "ethereum",
  "devdoc": {
    "kind": "dev",
    "methods": {
      "acceptOwnership()": {
        "details": "Takes ownership of the contract."
      },
      "changeReceiver(address,address)": {
        "details": "Change the receiver of an existing vesting schedule.",
        "params": {
          "newReceiver_": "The new receiver address.",
          "oldReceiver_": "The old receiver address."
        }
      },
      "claimTokens(address)": {
        "details": "Claim the callers tokens of a vesting schedule.",
        "params": {
          "destination_": "The destination to send the tokens."
        }
      },
      "claimableTokens(address)": {
        "details": "Returns the amount of claimable tokens for a receiver of a vesting schedule.",
        "params": {
          "receiver_": "The receiver address."
        },
        "returns": {
          "claimableTokens_": "The amount of claimable tokens."
        }
      },
      "constructor": {
        "details": "Constructor.",
        "params": {
          "token_": "The address of an erc20 token."
        }
      },
      "fundVesting(uint256)": {
        "details": "Fund the contact with tokens that will be vested.",
        "params": {
          "totalTokens_": "The amount of tokens that will be supplied to this contract."
        }
      },
      "killVesting(address,address)": {
        "details": "Kill the vesting schedule for a receiver.",
        "params": {
          "destination_": "The destination to send the tokens.",
          "receiver_": "The receiver address."
        }
      },
      "recoverToken(address,address)": {
        "details": "Recover tokens owned by the contract.",
        "params": {
          "destination_": "The destination to send the ETH.",
          "token_": "The token address."
        }
      },
      "renounceOwnership()": {
        "details": "Leaves the contract without owner, and clears the pendingOwner, if any."
      },
      "transferOwnership(address)": {
        "details": "Allows a new account to take ownership of the contract."
      }
    },
    "stateVariables": {
      "owner": {
        "details": "Returns the owner of the contract."
      },
      "pendingOwner": {
        "details": "Returns the pending owner of the contract."
      },
      "token": {
        "details": "The vesting token."
      },
      "totalVestingsTokens": {
        "details": "The total amount of tokens being vested."
      },
      "vestingScheduleOf": {
        "details": "Returns the vesting schedule of a receiver.",
        "params": {
          "receiver_": "The receiver of a vesting schedule."
        }
      }
    },
    "version": 1
  },
  "userdoc": {
    "kind": "user",
    "methods": {},
    "version": 1
  }
}